:100000002BC073C144C043C042C041C040C03FC0C8
:100010003EC03DC03CC03BC03AC039C038C037C00C
:1000200036C0040309040E03460061006200490063
:100030005300500012011001FF00000881179F0CAF
:1000400004010002000109021200010100801409EC
:1000500004000000FF00000011241FBECFE5D1E026
:10006000DEBFCDBF10E0A0E6B0E0E0E0F8E002C007
:1000700005900D92A236B107D9F710E0A2E6B0E0E4
:1000800001C01D92A53AB107E1F79ED3B7C3B8CF1F
:1000900085B7826085BF8BB780648BBF08951F933F
:1000A000CF93DF9360918B00635067FD9BC080917D
:1000B0008800CCE0D0E0C81BD109C157DF4F809148
:1000C00087008D3209F07CC0683009F089C083EC6C
:1000D00080937B008AE580936000109262008881A3
:1000E000807639F0CE015ED2282F8F3F09F457C0B9
:1000F0005DC09A81109284008981882321F4109236
:10010000850022E045C0853019F490938C003FC0F3
:10011000863071F58B81813019F484E390E004C05E
:10012000823041F486E490E090938A0080938900C5
:1001300022E11AC08330B9F48A81882341F482E233
:1001400090E090938A008093890024E00DC0813074
:1001500051F0823041F486E290E090938A008093DF
:1001600089002EE001C020E080E4809362001EC080
:10017000883021F421E08EE890E00CC0893019F439
:1001800090938E0004C08A3011F421E001C020E079
:1001900084E890E090938A008093890007C088816A
:1001A00087FD2E8180E88093620006C08F818823BE
:1001B00019F48E81821708F0822F8093610010C09D
:1001C0008091620087FF0CC0CE01A5D28F3F21F441
:1001D0008EE18093600004C0882311F010926100CA
:1001E00010928B008091600084FF58C08091610064
:1001F0008F3F09F453C0182F893008F018E0811B95
:100200008093610080917B0098E8892780937B0030
:10021000112391F18091620087FF08C08CE790E084
:10022000612F64D2182F893098F526C0209189005B
:1002300030918A0086FF0DC0ACE7B0E080E090E02E
:10024000F901E80FF91FE491ED9301961817C1F732
:1002500008C0912FD901ECE7F0E08D918193915086
:10026000E1F71150812F90E01F5F0196820F931FDD
:1002700090938A00809389008CE790E0612F31D0C1
:10028000612F6C5F6C3041F08FEF8093610004C090
:100290008FEF809361006EE16093600094E189B319
:1002A000817831F49150D9F710928C001092860029
:1002B000DF91CF911F910895A82FB92F80E090E092
:1002C00041E050EA609530E009C02D918227979572
:1002D000879510F084279527305EC8F36F5FA8F3E9
:1002E0000895EADF8D939D930895CF93CFB7CF9371
:1002F000DF93C395C89BE9F7C89B11C0C89B0FC08B
:10030000C89B0DC0C89B0BC0C89B09C0C89B07C039
:10031000C89B05C0C89B03C0C89B01C081C06F9328
:10032000C0918800DD27C157DF4F2F9320E400C024
:1003300065E0C89B03C02F916F91DECF0F931F9391
:100340004F9345E55F9355E53F933BE010E809B3D4
:1003500001782EC06A95C9F03150D8F109B30178FF
:1003600001130BC008942795299320E4555500F4F8
:100370006A9569F701E069B30BC0102F66E0269516
:10038000299320E4555518F3E2CF0FEF69B300002D
:10039000162F455500F0404066E011780030E2F23B
:1003A00021F0000009B3017803C009B30178A9F076
:1003B000011309C00894279568F200C06A95A9F74F
:1003C00000E069B3E5CF102F66E0269528F2000023
:1003D000ECCF10E41ABF002717C03B503195C31B68
:1003E000D04010E41ABF0881033CF9F00B34E9F067
:1003F000209186001981110F1213EDCF093651F1AA
:100400000D3211F0013E39F700938D003F915F915D
:100410004F911F910F912F916F91CAB7C6FD69CF70
:10042000DF91CF91CFBFCF91189520918D002223DE
:1004300069F310918B00112329F534302AF13093A0
:100440008B0020938700109188003BE0311B309394
:1004500088001AC000918B000130A4F40AE53091A5
:10046000600034FD12C000936000CBE7D0E011C003
:10047000052710E000C00BBB19C0052710E0221FA4
:1004800000C01DC04AE502C032ED432FC4E1D0E0F8
:1004900032E01AB31168D89A0BB31ABB51E820E8BE
:1004A00069E420FF05270BBB2795179500C00000C6
:1004B0001C3FF0F66695A8F7A1F720FF05270BBBB8
:1004C0002795179500001C3FC0F629913A9541F7F2
:1004D0000E7710918C00110F0BBBC651D04011F05C
:1004E0001093860010E41ABF01601AB31E77402FE4
:1004F0004E7755E05A95F1F70BBB1ABB4BBB86CF35
:10050000DC01FB016091630050E07D9190E040E8E8
:1005100020E030E0842F872309F0DE9A062E00C009
:1005200000000A94E1F7DC9A062E00C000000A944D
:10053000E1F7990FCD999F5FDE98DC9846952F5F84
:100540003F4F2830310531F790835F5F543011F011
:100550003196DBCF089520916600309167002F5FC0
:100560003F4F3093670020936600215030408091C8
:100570006A0087FF02C0220F331F80936B0020FFA9
:1005800003C0886080936B00832F869580936C00F6
:100590003695279520936D008BE690E06FE670E02E
:1005A000AFDF08950F931F93CF93DF93EC01398151
:1005B0003323B9F420E030E0F901ED58FF4FDE01BC
:1005C000A20FB31F8C9180832F5F3F4F28303105DE
:1005D00099F783E790E090938A008093890088E000
:1005E00080C05C81E52FF0E0313059F48081809348
:1005F000730083E790E090938A008093890081E004
:1006000070C0323011F48A8112C0BC016E5F7F4F1E
:100610004A81242F277081E090E0982F01C0990F24
:100620002A95EAF7333029F49095808189238083D5
:1006300057C0343019F48081892BF9CF353079F4E3
:1006400040936300552311F09AE001C092E08AB311
:100650008A658ABB8BB3857A982B9BBB41C03630A9
:1006600041F4DB9A8BB3857A8BBB8AB3857A8ABBDC
:1006700037C08BB38823A1F1373059F403E710E07A
:10068000CB01B8013DDF10938A000093890084E01C
:1006900028C0383031F4409364008B81809365002A
:1006A0001FC08C819D8190936700809366003930D4
:1006B00011F480E211C03B3011F480EA0DC08A8150
:1006C0009B8190936900809368003A3011F480E434
:1006D00003C03C3029F480EC80936A008FEF01C0A6
:1006E00080E0DF91CF911F910F9108950F931F9399
:1006F000CF93DF93062FEC0110E005C02CDF809133
:10070000720089931F5F1017C8F3802FDF91CF917C
:100710001F910F9108957F928F929F92AF92BF92F7
:10072000CF92DF92EF92FF920F931F93CF93DF93BD
:10073000862EA0906800B090690090906400C090F0
:10074000650020916300E22EFF2435E0EE0CFF1CD3
:100750003A95E1F78C01DD2420E6722E24C0F801E1
:10076000808180936E00F7DE80916B0087258093F7
:100770006B00C0E0D0E011C08BE690E06FE670E067
:10078000BFDE9091720080916E00981721F4991548
:1007900011F09C1529F4CE0DDF1DCA15DB0560F3A1
:1007A000D3940F5F1F4FD814D0F281E0DF91CF9127
:1007B0001F910F91FF90EF90DF90CF90BF90AF907F
:1007C0009F908F907F9008952EE088E190E00FB683
:1007D000F894A89581BD0FBE21BD5ADCD09A20E0C7
:1007E00048E853E104C0A895CA010197F1F72150E8
:1007F000D1F7D0987894A89552DCFDCFF894FFCF2C
:020800005AFF9D
:00000001FF
